{
  "_format": "hh-sol-artifact-1",
  "contractName": "Web3DuelGameV3",
  "sourceName": "contracts/Web3DuelGameV3.sol",
  "abi": [
    {
      "inputs": [
        {
          "internalType": "address",
          "name": "_token",
          "type": "address"
        },
        {
          "internalType": "uint256",
          "name": "_entryFee",
          "type": "uint256"
        }
      ],
      "stateMutability": "nonpayable",
      "type": "constructor"
    },
    {
      "inputs": [],
      "name": "CannotJoinOwnGame",
      "type": "error"
    },
    {
      "inputs": [],
      "name": "GameFull",
      "type": "error"
    },
    {
      "inputs": [],
      "name": "GameNotActive",
      "type": "error"
    },
    {
      "inputs": [],
      "name": "GameNotCompleted",
      "type": "error"
    },
    {
      "inputs": [
        {
          "internalType": "uint256",
          "name": "required",
          "type": "uint256"
        },
        {
          "internalType": "uint256",
          "name": "available",
          "type": "uint256"
        }
      ],
      "name": "InsufficientAllowance",
      "type": "error"
    },
    {
      "inputs": [
        {
          "internalType": "uint256",
          "name": "required",
          "type": "uint256"
        },
        {
          "internalType": "uint256",
          "name": "available",
          "type": "uint256"
        }
      ],
      "name": "InsufficientBalance",
      "type": "error"
    },
    {
      "inputs": [],
      "name": "InvalidWinner",
      "type": "error"
    },
    {
      "inputs": [],
      "name": "NotParticipant",
      "type": "error"
    },
    {
      "inputs": [],
      "name": "NotWinner",
      "type": "error"
    },
    {
      "inputs": [
        {
          "internalType": "address",
          "name": "owner",
          "type": "address"
        }
      ],
      "name": "OwnableInvalidOwner",
      "type": "error"
    },
    {
      "inputs": [
        {
          "internalType": "address",
          "name": "account",
          "type": "address"
        }
      ],
      "name": "OwnableUnauthorizedAccount",
      "type": "error"
    },
    {
      "inputs": [],
      "name": "PrizeAlreadyClaimed",
      "type": "error"
    },
    {
      "inputs": [],
      "name": "RefundAlreadyClaimed",
      "type": "error"
    },
    {
      "inputs": [],
      "name": "TransferFailed",
      "type": "error"
    },
    {
      "inputs": [],
      "name": "WinnerAlreadyDeclared",
      "type": "error"
    },
    {
      "anonymous": false,
      "inputs": [
        {
          "indexed": true,
          "internalType": "uint256",
          "name": "gameId",
          "type": "uint256"
        },
        {
          "indexed": true,
          "internalType": "address",
          "name": "player1",
          "type": "address"
        },
        {
          "indexed": false,
          "internalType": "string",
          "name": "gameType",
          "type": "string"
        }
      ],
      "name": "GameCreated",
      "type": "event"
    },
    {
      "anonymous": false,
      "inputs": [
        {
          "indexed": true,
          "internalType": "uint256",
          "name": "gameId",
          "type": "uint256"
        },
        {
          "indexed": true,
          "internalType": "address",
          "name": "player2",
          "type": "address"
        }
      ],
      "name": "GameJoined",
      "type": "event"
    },
    {
      "anonymous": false,
      "inputs": [
        {
          "indexed": true,
          "internalType": "uint256",
          "name": "gameId",
          "type": "uint256"
        }
      ],
      "name": "GameTied",
      "type": "event"
    },
    {
      "anonymous": false,
      "inputs": [
        {
          "indexed": true,
          "internalType": "address",
          "name": "previousOwner",
          "type": "address"
        },
        {
          "indexed": true,
          "internalType": "address",
          "name": "newOwner",
          "type": "address"
        }
      ],
      "name": "OwnershipTransferred",
      "type": "event"
    },
    {
      "anonymous": false,
      "inputs": [
        {
          "indexed": true,
          "internalType": "uint256",
          "name": "gameId",
          "type": "uint256"
        },
        {
          "indexed": true,
          "internalType": "address",
          "name": "winner",
          "type": "address"
        },
        {
          "indexed": false,
          "internalType": "uint256",
          "name": "amount",
          "type": "uint256"
        }
      ],
      "name": "PrizeClaimed",
      "type": "event"
    },
    {
      "anonymous": false,
      "inputs": [
        {
          "indexed": true,
          "internalType": "uint256",
          "name": "gameId",
          "type": "uint256"
        },
        {
          "indexed": true,
          "internalType": "address",
          "name": "player",
          "type": "address"
        },
        {
          "indexed": false,
          "internalType": "uint256",
          "name": "amount",
          "type": "uint256"
        }
      ],
      "name": "RefundClaimed",
      "type": "event"
    },
    {
      "anonymous": false,
      "inputs": [
        {
          "indexed": true,
          "internalType": "uint256",
          "name": "gameId",
          "type": "uint256"
        },
        {
          "indexed": true,
          "internalType": "address",
          "name": "winner",
          "type": "address"
        }
      ],
      "name": "WinnerDeclared",
      "type": "event"
    },
    {
      "inputs": [
        {
          "internalType": "address",
          "name": "user",
          "type": "address"
        }
      ],
      "name": "canCreateGame",
      "outputs": [
        {
          "internalType": "bool",
          "name": "",
          "type": "bool"
        }
      ],
      "stateMutability": "view",
      "type": "function"
    },
    {
      "inputs": [
        {
          "internalType": "uint256",
          "name": "gameId",
          "type": "uint256"
        }
      ],
      "name": "claimPrize",
      "outputs": [],
      "stateMutability": "nonpayable",
      "type": "function"
    },
    {
      "inputs": [
        {
          "internalType": "uint256",
          "name": "gameId",
          "type": "uint256"
        }
      ],
      "name": "claimRefund",
      "outputs": [],
      "stateMutability": "nonpayable",
      "type": "function"
    },
    {
      "inputs": [
        {
          "internalType": "string",
          "name": "gameType",
          "type": "string"
        }
      ],
      "name": "createGame",
      "outputs": [],
      "stateMutability": "nonpayable",
      "type": "function"
    },
    {
      "inputs": [
        {
          "internalType": "uint256",
          "name": "gameId",
          "type": "uint256"
        }
      ],
      "name": "declareTie",
      "outputs": [],
      "stateMutability": "nonpayable",
      "type": "function"
    },
    {
      "inputs": [
        {
          "internalType": "uint256",
          "name": "gameId",
          "type": "uint256"
        },
        {
          "internalType": "address",
          "name": "winner",
          "type": "address"
        }
      ],
      "name": "declareWinner",
      "outputs": [],
      "stateMutability": "nonpayable",
      "type": "function"
    },
    {
      "inputs": [],
      "name": "entryFee",
      "outputs": [
        {
          "internalType": "uint256",
          "name": "",
          "type": "uint256"
        }
      ],
      "stateMutability": "view",
      "type": "function"
    },
    {
      "inputs": [],
      "name": "gameIdCounter",
      "outputs": [
        {
          "internalType": "uint256",
          "name": "",
          "type": "uint256"
        }
      ],
      "stateMutability": "view",
      "type": "function"
    },
    {
      "inputs": [
        {
          "internalType": "uint256",
          "name": "",
          "type": "uint256"
        }
      ],
      "name": "games",
      "outputs": [
        {
          "internalType": "address",
          "name": "player1",
          "type": "address"
        },
        {
          "internalType": "address",
          "name": "player2",
          "type": "address"
        },
        {
          "internalType": "address",
          "name": "winner",
          "type": "address"
        },
        {
          "internalType": "bool",
          "name": "claimed",
          "type": "bool"
        },
        {
          "internalType": "bool",
          "name": "refunded",
          "type": "bool"
        },
        {
          "internalType": "string",
          "name": "gameType",
          "type": "string"
        },
        {
          "internalType": "enum Web3DuelGameV3.GameStatus",
          "name": "status",
          "type": "uint8"
        },
        {
          "internalType": "uint256",
          "name": "createdAt",
          "type": "uint256"
        }
      ],
      "stateMutability": "view",
      "type": "function"
    },
    {
      "inputs": [],
      "name": "getActiveGames",
      "outputs": [
        {
          "internalType": "uint256[]",
          "name": "",
          "type": "uint256[]"
        }
      ],
      "stateMutability": "view",
      "type": "function"
    },
    {
      "inputs": [
        {
          "internalType": "uint256",
          "name": "gameId",
          "type": "uint256"
        }
      ],
      "name": "getGameInfo",
      "outputs": [
        {
          "internalType": "address",
          "name": "player1",
          "type": "address"
        },
        {
          "internalType": "address",
          "name": "player2",
          "type": "address"
        },
        {
          "internalType": "address",
          "name": "winner",
          "type": "address"
        },
        {
          "internalType": "bool",
          "name": "claimed",
          "type": "bool"
        },
        {
          "internalType": "bool",
          "name": "refunded",
          "type": "bool"
        },
        {
          "internalType": "string",
          "name": "gameType",
          "type": "string"
        },
        {
          "internalType": "enum Web3DuelGameV3.GameStatus",
          "name": "status",
          "type": "uint8"
        },
        {
          "internalType": "uint256",
          "name": "createdAt",
          "type": "uint256"
        }
      ],
      "stateMutability": "view",
      "type": "function"
    },
    {
      "inputs": [
        {
          "internalType": "address",
          "name": "user",
          "type": "address"
        }
      ],
      "name": "getUserAllowance",
      "outputs": [
        {
          "internalType": "uint256",
          "name": "",
          "type": "uint256"
        }
      ],
      "stateMutability": "view",
      "type": "function"
    },
    {
      "inputs": [
        {
          "internalType": "address",
          "name": "user",
          "type": "address"
        }
      ],
      "name": "getUserBalance",
      "outputs": [
        {
          "internalType": "uint256",
          "name": "",
          "type": "uint256"
        }
      ],
      "stateMutability": "view",
      "type": "function"
    },
    {
      "inputs": [
        {
          "internalType": "uint256",
          "name": "gameId",
          "type": "uint256"
        }
      ],
      "name": "joinGame",
      "outputs": [],
      "stateMutability": "nonpayable",
      "type": "function"
    },
    {
      "inputs": [],
      "name": "owner",
      "outputs": [
        {
          "internalType": "address",
          "name": "",
          "type": "address"
        }
      ],
      "stateMutability": "view",
      "type": "function"
    },
    {
      "inputs": [],
      "name": "renounceOwnership",
      "outputs": [],
      "stateMutability": "nonpayable",
      "type": "function"
    },
    {
      "inputs": [],
      "name": "token",
      "outputs": [
        {
          "internalType": "contract IERC20",
          "name": "",
          "type": "address"
        }
      ],
      "stateMutability": "view",
      "type": "function"
    },
    {
      "inputs": [
        {
          "internalType": "address",
          "name": "newOwner",
          "type": "address"
        }
      ],
      "name": "transferOwnership",
      "outputs": [],
      "stateMutability": "nonpayable",
      "type": "function"
    }
  ],
  "bytecode": "0x608060405234801561001057600080fd5b50604051620019cb380380620019cb833981016040819052610031916100da565b338061005757604051631e4fbdf760e01b81526000600482015260240160405180910390fd5b6100608161008a565b50600180546001600160a01b0319166001600160a01b039390931692909217909155600255610114565b600080546001600160a01b038381166001600160a01b0319831681178455604051919092169283917f8be0079c531659141344cd1fd0a4f28419497f9722a3daafe3b4186f6b6457e09190a35050565b600080604083850312156100ed57600080fd5b82516001600160a01b038116811461010457600080fd5b6020939093015192949293505050565b6118a780620001246000396000f3fe608060405234801561001057600080fd5b50600436106101165760003560e01c80635b7baf64116100a2578063e374b09711610071578063e374b09714610230578063efaa55a014610243578063f2fde38b14610256578063f5a5d30514610269578063fc0c546a1461028c57600080fd5b80635b7baf64146101dd578063715018a6146101f05780638da5cb5b146101f8578063d70981541461021d57600080fd5b80631bb412d6116100e95780631bb412d6146101865780632ebc05041461018f5780633fd0e1ff146101a457806347734892146101b757806347e1d550146101ca57600080fd5b8063072ea61c1461011b5780630c6ddc0d14610137578063117a5b901461014a5780631b76929c14610171575b600080fd5b61012460025481565b6040519081526020015b60405180910390f35b610124610145366004611434565b61029f565b61015d610158366004611456565b61031b565b60405161012e9897969594939291906114cb565b610179610401565b60405161012e9190611547565b61012460035481565b6101a261019d3660046115a1565b61056e565b005b6101a26101b2366004611456565b6108c8565b6101246101c5366004611434565b61097e565b61015d6101d8366004611456565b6109b1565b6101a26101eb366004611456565b610ac3565b6101a2610ca8565b6000546001600160a01b03165b6040516001600160a01b03909116815260200161012e565b6101a261022b366004611456565b610cbc565b6101a261023e366004611652565b610e66565b6101a2610251366004611456565b610f88565b6101a2610264366004611434565b611253565b61027c610277366004611434565b611291565b604051901515815260200161012e565b600154610205906001600160a01b031681565b600154604051636eb1769f60e11b81526001600160a01b038381166004830152306024830152600092169063dd62ed3e906044015b602060405180830381865afa1580156102f1573d6000803e3d6000fd5b505050506040513d601f19601f82011682018060405250810190610315919061167e565b92915050565b60046020526000908152604090208054600182015460028301546003840180546001600160a01b03948516959385169483169360ff600160a01b8504811694600160a81b90041692909161036e90611697565b80601f016020809104026020016040519081016040528092919081815260200182805461039a90611697565b80156103e75780601f106103bc576101008083540402835291602001916103e7565b820191906000526020600020905b8154815290600101906020018083116103ca57829003601f168201915b505050506004830154600590930154919260ff1691905088565b60606000805b6003548110156104815760008181526004602081905260408220015460ff166002811115610437576104376114b5565b14801561045c57506000818152600460205260409020600101546001600160a01b0316155b1561046f578161046b816116e7565b9250505b80610479816116e7565b915050610407565b5060008167ffffffffffffffff81111561049d5761049d61158b565b6040519080825280602002602001820160405280156104c6578160200160208202803683370190505b5090506000805b6003548110156105655760008181526004602081905260408220015460ff1660028111156104fd576104fd6114b5565b14801561052257506000818152600460205260409020600101546001600160a01b0316155b15610553578083838151811061053a5761053a611700565b60209081029190910101528161054f816116e7565b9250505b8061055d816116e7565b9150506104cd565b50909392505050565b6001546040516370a0823160e01b81523360048201526000916001600160a01b0316906370a0823190602401602060405180830381865afa1580156105b7573d6000803e3d6000fd5b505050506040513d601f19601f820116820180604052508101906105db919061167e565b90506002548110156106135760025460405163cf47918160e01b81526004810191909152602481018290526044015b60405180910390fd5b600154604051636eb1769f60e11b81523360048201523060248201526000916001600160a01b03169063dd62ed3e90604401602060405180830381865afa158015610662573d6000803e3d6000fd5b505050506040513d601f19601f82011682018060405250810190610686919061167e565b90506002548110156106b95760025460405163054365bb60e31b815260048101919091526024810182905260440161060a565b6001546002546040516323b872dd60e01b815233600482015230602482015260448101919091526000916001600160a01b0316906323b872dd906064016020604051808303816000875af1158015610715573d6000803e3d6000fd5b505050506040513d601f19601f820116820180604052508101906107399190611716565b905080610759576040516312171d8360e31b815260040160405180910390fd5b604080516101008101825233815260006020808301828152838501838152606085018481526080860185815260a087018c815260c088018790524260e0890152600380548852600490965297909520865181546001600160a01b039182166001600160a01b0319918216178355945160018301805491831691909616179094559151600283018054925196511515600160a81b0260ff60a81b19971515600160a01b026001600160a81b03199094169290951691909117919091179490941691909117909255925191929091908201906108339082611787565b5060c082015160048201805460ff19166001836002811115610857576108576114b5565b021790555060e08201518160050155905050336001600160a01b03166003547fb8c10eb2cbd5882e65e2a0353d66716331f119893ba9066154c6500c4a669525866040516108a59190611847565b60405180910390a3600380549060006108bd836116e7565b919050555050505050565b6108d061139b565b600081815260046020526040812090600482015460ff1660028111156108f8576108f86114b5565b146109155760405162a3097160e01b815260040160405180910390fd5b60018101546001600160a01b031661094057604051637756e2a160e01b815260040160405180910390fd5b60048101805460ff1916600217905560405182907f6735b98d5d75eb6a72ff7cbd805fc91d5ee18e1b5d11043b0e649b6f22c9cab890600090a25050565b6001546040516370a0823160e01b81526001600160a01b03838116600483015260009216906370a08231906024016102d4565b6000818152600460208190526040822080546001820154600283015493830154600584015460038501805488978897889788976060978997889794966001600160a01b0394851696938516959484169460ff600160a01b8604811695600160a81b900481169491939116918390610a2790611697565b80601f0160208091040260200160405190810160405280929190818152602001828054610a5390611697565b8015610aa05780601f10610a7557610100808354040283529160200191610aa0565b820191906000526020600020905b815481529060010190602001808311610a8357829003601f168201915b505050505092509850985098509850985098509850985050919395975091939597565b60008181526004602052604090206002600482015460ff166002811115610aec57610aec6114b5565b14610b0a57604051637756e2a160e01b815260040160405180910390fd5b80546001600160a01b03163314801590610b31575060018101546001600160a01b03163314155b15610b4f5760405163721c7c6760e11b815260040160405180910390fd5b6002810154600160a81b900460ff1615610b7c57604051637697c5dd60e01b815260040160405180910390fd5b6002810154600160a01b900460ff16158015610bac5760028201805460ff60a01b1916600160a01b179055610bc2565b60028201805460ff60a81b1916600160a81b1790555b60015460025460405163a9059cbb60e01b815233600482015260248101919091526000916001600160a01b03169063a9059cbb906044016020604051808303816000875af1158015610c18573d6000803e3d6000fd5b505050506040513d601f19601f82011682018060405250810190610c3c9190611716565b905080610c5c576040516312171d8360e31b815260040160405180910390fd5b336001600160a01b0316847ff3f402280ef0a7905e124aa621b65eaeb2725c343e8b36d398ed78c29daf285c600254604051610c9a91815260200190565b60405180910390a350505050565b610cb061139b565b610cba60006113c8565b565b60008181526004602052604090206001600482015460ff166002811115610ce557610ce56114b5565b14610d0357604051637756e2a160e01b815260040160405180910390fd5b60028101546001600160a01b03163314610d30576040516330c6392160e11b815260040160405180910390fd5b6002810154600160a01b900460ff1615610d5d5760405163611ab18960e11b815260040160405180910390fd5b6002808201805460ff60a01b1916600160a01b1790558054600091610d82919061185a565b600154600284015460405163a9059cbb60e01b81526001600160a01b0391821660048201526024810184905292935060009291169063a9059cbb906044016020604051808303816000875af1158015610ddf573d6000803e3d6000fd5b505050506040513d601f19601f82011682018060405250810190610e039190611716565b905080610e23576040516312171d8360e31b815260040160405180910390fd5b60028301546040518381526001600160a01b039091169085907f4aa95f981a8337cb337de335b965507da0879c3b49f799d20058e913f5ad2c2690602001610c9a565b610e6e61139b565b600082815260046020526040812090600482015460ff166002811115610e9657610e966114b5565b14610eb35760405162a3097160e01b815260040160405180910390fd5b60018101546001600160a01b0316610ede57604051637756e2a160e01b815260040160405180910390fd5b80546001600160a01b03838116911614801590610f0b575060018101546001600160a01b03838116911614155b15610f29576040516393a5f3c760e01b815260040160405180910390fd5b6002810180546001600160a01b0319166001600160a01b03841690811790915560048201805460ff1916600117905560405184907f4d3647387a0671b375a6cfb75769ed74ec10d3a37f6d3b392b12926fe9a099d190600090a3505050565b600081815260046020526040902060018101546001600160a01b031615610fc25760405163b3ed896d60e01b815260040160405180910390fd5b80546001600160a01b03163303610fec5760405163106a317d60e01b815260040160405180910390fd5b6000600482015460ff166002811115611007576110076114b5565b146110245760405162a3097160e01b815260040160405180910390fd5b6001546040516370a0823160e01b81523360048201526000916001600160a01b0316906370a0823190602401602060405180830381865afa15801561106d573d6000803e3d6000fd5b505050506040513d601f19601f82011682018060405250810190611091919061167e565b90506002548110156110c45760025460405163cf47918160e01b815260048101919091526024810182905260440161060a565b600154604051636eb1769f60e11b81523360048201523060248201526000916001600160a01b03169063dd62ed3e90604401602060405180830381865afa158015611113573d6000803e3d6000fd5b505050506040513d601f19601f82011682018060405250810190611137919061167e565b905060025481101561116a5760025460405163054365bb60e31b815260048101919091526024810182905260440161060a565b6001546002546040516323b872dd60e01b815233600482015230602482015260448101919091526000916001600160a01b0316906323b872dd906064016020604051808303816000875af11580156111c6573d6000803e3d6000fd5b505050506040513d601f19601f820116820180604052508101906111ea9190611716565b90508061120a576040516312171d8360e31b815260040160405180910390fd5b6001840180546001600160a01b0319163390811790915560405186907f45c4f9cbafe186141862608c493f28b823fde4c2142bedc3f5169961a73fdd2290600090a35050505050565b61125b61139b565b6001600160a01b03811661128557604051631e4fbdf760e01b81526000600482015260240161060a565b61128e816113c8565b50565b6001546040516370a0823160e01b81526001600160a01b03838116600483015260009283929116906370a0823190602401602060405180830381865afa1580156112df573d6000803e3d6000fd5b505050506040513d601f19601f82011682018060405250810190611303919061167e565b600154604051636eb1769f60e11b81526001600160a01b0386811660048301523060248301529293506000929091169063dd62ed3e90604401602060405180830381865afa158015611359573d6000803e3d6000fd5b505050506040513d601f19601f8201168201806040525081019061137d919061167e565b9050600254821015801561139357506002548110155b949350505050565b6000546001600160a01b03163314610cba5760405163118cdaa760e01b815233600482015260240161060a565b600080546001600160a01b038381166001600160a01b0319831681178455604051919092169283917f8be0079c531659141344cd1fd0a4f28419497f9722a3daafe3b4186f6b6457e09190a35050565b80356001600160a01b038116811461142f57600080fd5b919050565b60006020828403121561144657600080fd5b61144f82611418565b9392505050565b60006020828403121561146857600080fd5b5035919050565b6000815180845260005b8181101561149557602081850181015186830182015201611479565b506000602082860101526020601f19601f83011685010191505092915050565b634e487b7160e01b600052602160045260246000fd5b6001600160a01b0389811682528881166020830152871660408201528515156060820152841515608082015261010060a082018190526000906115108382018761146f565b9150506003841061153157634e487b7160e01b600052602160045260246000fd5b60c082019390935260e001529695505050505050565b6020808252825182820181905260009190848201906040850190845b8181101561157f57835183529284019291840191600101611563565b50909695505050505050565b634e487b7160e01b600052604160045260246000fd5b6000602082840312156115b357600080fd5b813567ffffffffffffffff808211156115cb57600080fd5b818401915084601f8301126115df57600080fd5b8135818111156115f1576115f161158b565b604051601f8201601f19908116603f011681019083821181831017156116195761161961158b565b8160405282815287602084870101111561163257600080fd5b826020860160208301376000928101602001929092525095945050505050565b6000806040838503121561166557600080fd5b8235915061167560208401611418565b90509250929050565b60006020828403121561169057600080fd5b5051919050565b600181811c908216806116ab57607f821691505b6020821081036116cb57634e487b7160e01b600052602260045260246000fd5b50919050565b634e487b7160e01b600052601160045260246000fd5b6000600182016116f9576116f96116d1565b5060010190565b634e487b7160e01b600052603260045260246000fd5b60006020828403121561172857600080fd5b8151801515811461144f57600080fd5b601f82111561178257600081815260208120601f850160051c8101602086101561175f5750805b601f850160051c820191505b8181101561177e5782815560010161176b565b5050505b505050565b815167ffffffffffffffff8111156117a1576117a161158b565b6117b5816117af8454611697565b84611738565b602080601f8311600181146117ea57600084156117d25750858301515b600019600386901b1c1916600185901b17855561177e565b600085815260208120601f198616915b82811015611819578886015182559484019460019091019084016117fa565b50858210156118375787850151600019600388901b60f8161c191681555b5050505050600190811b01905550565b60208152600061144f602083018461146f565b8082028115828204841417610315576103156116d156fea2646970667358221220ab70c2eff10d658877aa714e425faf6049d0add38c207e25670750d792913a9564736f6c63430008140033",
  "linkReferences": {},
  "deployedLinkReferences": {}
}