{
  "_format": "hh-sol-artifact-1",
  "contractName": "Web3DuelGameV2",
  "sourceName": "contracts/Web3DuelGameV2.sol",
  "abi": [
    {
      "inputs": [
        {
          "internalType": "address",
          "name": "_token",
          "type": "address"
        },
        {
          "internalType": "uint256",
          "name": "_entryFee",
          "type": "uint256"
        }
      ],
      "stateMutability": "nonpayable",
      "type": "constructor"
    },
    {
      "inputs": [],
      "name": "CannotJoinOwnGame",
      "type": "error"
    },
    {
      "inputs": [],
      "name": "GameFull",
      "type": "error"
    },
    {
      "inputs": [
        {
          "internalType": "uint256",
          "name": "required",
          "type": "uint256"
        },
        {
          "internalType": "uint256",
          "name": "available",
          "type": "uint256"
        }
      ],
      "name": "InsufficientAllowance",
      "type": "error"
    },
    {
      "inputs": [
        {
          "internalType": "uint256",
          "name": "required",
          "type": "uint256"
        },
        {
          "internalType": "uint256",
          "name": "available",
          "type": "uint256"
        }
      ],
      "name": "InsufficientBalance",
      "type": "error"
    },
    {
      "inputs": [],
      "name": "InvalidWinner",
      "type": "error"
    },
    {
      "inputs": [],
      "name": "NotWinner",
      "type": "error"
    },
    {
      "inputs": [
        {
          "internalType": "address",
          "name": "owner",
          "type": "address"
        }
      ],
      "name": "OwnableInvalidOwner",
      "type": "error"
    },
    {
      "inputs": [
        {
          "internalType": "address",
          "name": "account",
          "type": "address"
        }
      ],
      "name": "OwnableUnauthorizedAccount",
      "type": "error"
    },
    {
      "inputs": [],
      "name": "PrizeAlreadyClaimed",
      "type": "error"
    },
    {
      "inputs": [],
      "name": "TransferFailed",
      "type": "error"
    },
    {
      "inputs": [],
      "name": "WinnerAlreadyDeclared",
      "type": "error"
    },
    {
      "anonymous": false,
      "inputs": [
        {
          "indexed": true,
          "internalType": "uint256",
          "name": "gameId",
          "type": "uint256"
        },
        {
          "indexed": true,
          "internalType": "address",
          "name": "player1",
          "type": "address"
        },
        {
          "indexed": false,
          "internalType": "string",
          "name": "gameType",
          "type": "string"
        }
      ],
      "name": "GameCreated",
      "type": "event"
    },
    {
      "anonymous": false,
      "inputs": [
        {
          "indexed": true,
          "internalType": "uint256",
          "name": "gameId",
          "type": "uint256"
        },
        {
          "indexed": true,
          "internalType": "address",
          "name": "player2",
          "type": "address"
        }
      ],
      "name": "GameJoined",
      "type": "event"
    },
    {
      "anonymous": false,
      "inputs": [
        {
          "indexed": true,
          "internalType": "address",
          "name": "previousOwner",
          "type": "address"
        },
        {
          "indexed": true,
          "internalType": "address",
          "name": "newOwner",
          "type": "address"
        }
      ],
      "name": "OwnershipTransferred",
      "type": "event"
    },
    {
      "anonymous": false,
      "inputs": [
        {
          "indexed": true,
          "internalType": "uint256",
          "name": "gameId",
          "type": "uint256"
        },
        {
          "indexed": true,
          "internalType": "address",
          "name": "winner",
          "type": "address"
        },
        {
          "indexed": false,
          "internalType": "uint256",
          "name": "amount",
          "type": "uint256"
        }
      ],
      "name": "PrizeClaimed",
      "type": "event"
    },
    {
      "anonymous": false,
      "inputs": [
        {
          "indexed": true,
          "internalType": "uint256",
          "name": "gameId",
          "type": "uint256"
        },
        {
          "indexed": true,
          "internalType": "address",
          "name": "winner",
          "type": "address"
        }
      ],
      "name": "WinnerDeclared",
      "type": "event"
    },
    {
      "inputs": [
        {
          "internalType": "address",
          "name": "user",
          "type": "address"
        }
      ],
      "name": "canCreateGame",
      "outputs": [
        {
          "internalType": "bool",
          "name": "",
          "type": "bool"
        }
      ],
      "stateMutability": "view",
      "type": "function"
    },
    {
      "inputs": [
        {
          "internalType": "uint256",
          "name": "gameId",
          "type": "uint256"
        }
      ],
      "name": "claimPrize",
      "outputs": [],
      "stateMutability": "nonpayable",
      "type": "function"
    },
    {
      "inputs": [
        {
          "internalType": "string",
          "name": "gameType",
          "type": "string"
        }
      ],
      "name": "createGame",
      "outputs": [],
      "stateMutability": "nonpayable",
      "type": "function"
    },
    {
      "inputs": [
        {
          "internalType": "uint256",
          "name": "gameId",
          "type": "uint256"
        },
        {
          "internalType": "address",
          "name": "winner",
          "type": "address"
        }
      ],
      "name": "declareWinner",
      "outputs": [],
      "stateMutability": "nonpayable",
      "type": "function"
    },
    {
      "inputs": [],
      "name": "entryFee",
      "outputs": [
        {
          "internalType": "uint256",
          "name": "",
          "type": "uint256"
        }
      ],
      "stateMutability": "view",
      "type": "function"
    },
    {
      "inputs": [],
      "name": "gameIdCounter",
      "outputs": [
        {
          "internalType": "uint256",
          "name": "",
          "type": "uint256"
        }
      ],
      "stateMutability": "view",
      "type": "function"
    },
    {
      "inputs": [
        {
          "internalType": "uint256",
          "name": "",
          "type": "uint256"
        }
      ],
      "name": "games",
      "outputs": [
        {
          "internalType": "address",
          "name": "player1",
          "type": "address"
        },
        {
          "internalType": "address",
          "name": "player2",
          "type": "address"
        },
        {
          "internalType": "address",
          "name": "winner",
          "type": "address"
        },
        {
          "internalType": "bool",
          "name": "claimed",
          "type": "bool"
        },
        {
          "internalType": "string",
          "name": "gameType",
          "type": "string"
        }
      ],
      "stateMutability": "view",
      "type": "function"
    },
    {
      "inputs": [
        {
          "internalType": "address",
          "name": "user",
          "type": "address"
        }
      ],
      "name": "getUserAllowance",
      "outputs": [
        {
          "internalType": "uint256",
          "name": "",
          "type": "uint256"
        }
      ],
      "stateMutability": "view",
      "type": "function"
    },
    {
      "inputs": [
        {
          "internalType": "address",
          "name": "user",
          "type": "address"
        }
      ],
      "name": "getUserBalance",
      "outputs": [
        {
          "internalType": "uint256",
          "name": "",
          "type": "uint256"
        }
      ],
      "stateMutability": "view",
      "type": "function"
    },
    {
      "inputs": [
        {
          "internalType": "uint256",
          "name": "gameId",
          "type": "uint256"
        }
      ],
      "name": "joinGame",
      "outputs": [],
      "stateMutability": "nonpayable",
      "type": "function"
    },
    {
      "inputs": [],
      "name": "owner",
      "outputs": [
        {
          "internalType": "address",
          "name": "",
          "type": "address"
        }
      ],
      "stateMutability": "view",
      "type": "function"
    },
    {
      "inputs": [],
      "name": "renounceOwnership",
      "outputs": [],
      "stateMutability": "nonpayable",
      "type": "function"
    },
    {
      "inputs": [],
      "name": "token",
      "outputs": [
        {
          "internalType": "contract IERC20",
          "name": "",
          "type": "address"
        }
      ],
      "stateMutability": "view",
      "type": "function"
    },
    {
      "inputs": [
        {
          "internalType": "address",
          "name": "newOwner",
          "type": "address"
        }
      ],
      "name": "transferOwnership",
      "outputs": [],
      "stateMutability": "nonpayable",
      "type": "function"
    }
  ],
  "bytecode": "0x608060405234801561001057600080fd5b5060405161125a38038061125a83398101604081905261002f916100d8565b338061005557604051631e4fbdf760e01b81526000600482015260240160405180910390fd5b61005e81610088565b50600180546001600160a01b0319166001600160a01b039390931692909217909155600255610112565b600080546001600160a01b038381166001600160a01b0319831681178455604051919092169283917f8be0079c531659141344cd1fd0a4f28419497f9722a3daafe3b4186f6b6457e09190a35050565b600080604083850312156100eb57600080fd5b82516001600160a01b038116811461010257600080fd5b6020939093015192949293505050565b611139806101216000396000f3fe608060405234801561001057600080fd5b50600436106100ea5760003560e01c80638da5cb5b1161008c578063efaa55a011610066578063efaa55a0146101c6578063f2fde38b146101d9578063f5a5d305146101ec578063fc0c546a1461020f57600080fd5b80638da5cb5b1461017b578063d7098154146101a0578063e374b097146101b357600080fd5b80631bb412d6116100c85780631bb412d6146101425780632ebc05041461014b5780634773489214610160578063715018a61461017357600080fd5b8063072ea61c146100ef5780630c6ddc0d1461010b578063117a5b901461011e575b600080fd5b6100f860025481565b6040519081526020015b60405180910390f35b6100f8610119366004610d6b565b610222565b61013161012c366004610d8d565b61029e565b604051610102959493929190610dec565b6100f860035481565b61015e610159366004610e49565b61036b565b005b6100f861016e366004610d6b565b610659565b61015e61068c565b6000546001600160a01b03165b6040516001600160a01b039091168152602001610102565b61015e6101ae366004610d8d565b6106a0565b61015e6101c1366004610efa565b61081a565b61015e6101d4366004610d8d565b6108f7565b61015e6101e7366004610d6b565b610b8a565b6101ff6101fa366004610d6b565b610bc8565b6040519015158152602001610102565b600154610188906001600160a01b031681565b600154604051636eb1769f60e11b81526001600160a01b038381166004830152306024830152600092169063dd62ed3e906044015b602060405180830381865afa158015610274573d6000803e3d6000fd5b505050506040513d601f19601f820116820180604052508101906102989190610f26565b92915050565b60046020526000908152604090208054600182015460028301546003840180546001600160a01b039485169593851694831693600160a01b90930460ff169291906102e890610f3f565b80601f016020809104026020016040519081016040528092919081815260200182805461031490610f3f565b80156103615780601f1061033657610100808354040283529160200191610361565b820191906000526020600020905b81548152906001019060200180831161034457829003601f168201915b5050505050905085565b6001546040516370a0823160e01b81523360048201526000916001600160a01b0316906370a0823190602401602060405180830381865afa1580156103b4573d6000803e3d6000fd5b505050506040513d601f19601f820116820180604052508101906103d89190610f26565b90506002548110156104105760025460405163cf47918160e01b81526004810191909152602481018290526044015b60405180910390fd5b600154604051636eb1769f60e11b81523360048201523060248201526000916001600160a01b03169063dd62ed3e90604401602060405180830381865afa15801561045f573d6000803e3d6000fd5b505050506040513d601f19601f820116820180604052508101906104839190610f26565b90506002548110156104b65760025460405163054365bb60e31b8152600481019190915260248101829052604401610407565b6001546002546040516323b872dd60e01b815233600482015230602482015260448101919091526000916001600160a01b0316906323b872dd906064016020604051808303816000875af1158015610512573d6000803e3d6000fd5b505050506040513d601f19601f820116820180604052508101906105369190610f79565b905080610556576040516312171d8360e31b815260040160405180910390fd5b6040805160a0810182523381526000602080830182815283850183815260608501848152608086018b8152600380548752600490955296909420855181546001600160a01b039182166001600160a01b031991821617835593516001830180549183169190951617909355905160028201805495511515600160a01b026001600160a81b03199096169190931617939093179055925191929091908201906105fe9082610fea565b50506003546040513392507fb8c10eb2cbd5882e65e2a0353d66716331f119893ba9066154c6500c4a669525906106369088906110aa565b60405180910390a36003805490600061064e836110d3565b919050555050505050565b6001546040516370a0823160e01b81526001600160a01b03838116600483015260009216906370a0823190602401610257565b610694610cd2565b61069e6000610cff565b565b600081815260046020526040902060028101546001600160a01b031633146106db576040516330c6392160e11b815260040160405180910390fd5b6002810154600160a01b900460ff16156107085760405163611ab18960e11b815260040160405180910390fd5b6002808201805460ff60a01b1916600160a01b179055805460009161072d91906110ec565b600154600284015460405163a9059cbb60e01b81526001600160a01b0391821660048201526024810184905292935060009291169063a9059cbb906044016020604051808303816000875af115801561078a573d6000803e3d6000fd5b505050506040513d601f19601f820116820180604052508101906107ae9190610f79565b9050806107ce576040516312171d8360e31b815260040160405180910390fd5b60028301546040518381526001600160a01b039091169085907f4aa95f981a8337cb337de335b965507da0879c3b49f799d20058e913f5ad2c269060200160405180910390a350505050565b610822610cd2565b600082815260046020526040902060028101546001600160a01b03161561085c576040516373411a2f60e11b815260040160405180910390fd5b80546001600160a01b03838116911614801590610889575060018101546001600160a01b03838116911614155b156108a7576040516393a5f3c760e01b815260040160405180910390fd5b6002810180546001600160a01b0319166001600160a01b03841690811790915560405184907f4d3647387a0671b375a6cfb75769ed74ec10d3a37f6d3b392b12926fe9a099d190600090a3505050565b600081815260046020526040902060018101546001600160a01b0316156109315760405163b3ed896d60e01b815260040160405180910390fd5b80546001600160a01b0316330361095b5760405163106a317d60e01b815260040160405180910390fd5b6001546040516370a0823160e01b81523360048201526000916001600160a01b0316906370a0823190602401602060405180830381865afa1580156109a4573d6000803e3d6000fd5b505050506040513d601f19601f820116820180604052508101906109c89190610f26565b90506002548110156109fb5760025460405163cf47918160e01b8152600481019190915260248101829052604401610407565b600154604051636eb1769f60e11b81523360048201523060248201526000916001600160a01b03169063dd62ed3e90604401602060405180830381865afa158015610a4a573d6000803e3d6000fd5b505050506040513d601f19601f82011682018060405250810190610a6e9190610f26565b9050600254811015610aa15760025460405163054365bb60e31b8152600481019190915260248101829052604401610407565b6001546002546040516323b872dd60e01b815233600482015230602482015260448101919091526000916001600160a01b0316906323b872dd906064016020604051808303816000875af1158015610afd573d6000803e3d6000fd5b505050506040513d601f19601f82011682018060405250810190610b219190610f79565b905080610b41576040516312171d8360e31b815260040160405180910390fd5b6001840180546001600160a01b0319163390811790915560405186907f45c4f9cbafe186141862608c493f28b823fde4c2142bedc3f5169961a73fdd2290600090a35050505050565b610b92610cd2565b6001600160a01b038116610bbc57604051631e4fbdf760e01b815260006004820152602401610407565b610bc581610cff565b50565b6001546040516370a0823160e01b81526001600160a01b03838116600483015260009283929116906370a0823190602401602060405180830381865afa158015610c16573d6000803e3d6000fd5b505050506040513d601f19601f82011682018060405250810190610c3a9190610f26565b600154604051636eb1769f60e11b81526001600160a01b0386811660048301523060248301529293506000929091169063dd62ed3e90604401602060405180830381865afa158015610c90573d6000803e3d6000fd5b505050506040513d601f19601f82011682018060405250810190610cb49190610f26565b90506002548210158015610cca57506002548110155b949350505050565b6000546001600160a01b0316331461069e5760405163118cdaa760e01b8152336004820152602401610407565b600080546001600160a01b038381166001600160a01b0319831681178455604051919092169283917f8be0079c531659141344cd1fd0a4f28419497f9722a3daafe3b4186f6b6457e09190a35050565b80356001600160a01b0381168114610d6657600080fd5b919050565b600060208284031215610d7d57600080fd5b610d8682610d4f565b9392505050565b600060208284031215610d9f57600080fd5b5035919050565b6000815180845260005b81811015610dcc57602081850181015186830182015201610db0565b506000602082860101526020601f19601f83011685010191505092915050565b6001600160a01b038681168252858116602083015284166040820152821515606082015260a060808201819052600090610e2890830184610da6565b979650505050505050565b634e487b7160e01b600052604160045260246000fd5b600060208284031215610e5b57600080fd5b813567ffffffffffffffff80821115610e7357600080fd5b818401915084601f830112610e8757600080fd5b813581811115610e9957610e99610e33565b604051601f8201601f19908116603f01168101908382118183101715610ec157610ec1610e33565b81604052828152876020848701011115610eda57600080fd5b826020860160208301376000928101602001929092525095945050505050565b60008060408385031215610f0d57600080fd5b82359150610f1d60208401610d4f565b90509250929050565b600060208284031215610f3857600080fd5b5051919050565b600181811c90821680610f5357607f821691505b602082108103610f7357634e487b7160e01b600052602260045260246000fd5b50919050565b600060208284031215610f8b57600080fd5b81518015158114610d8657600080fd5b601f821115610fe557600081815260208120601f850160051c81016020861015610fc25750805b601f850160051c820191505b81811015610fe157828155600101610fce565b5050505b505050565b815167ffffffffffffffff81111561100457611004610e33565b611018816110128454610f3f565b84610f9b565b602080601f83116001811461104d57600084156110355750858301515b600019600386901b1c1916600185901b178555610fe1565b600085815260208120601f198616915b8281101561107c5788860151825594840194600190910190840161105d565b508582101561109a5787850151600019600388901b60f8161c191681555b5050505050600190811b01905550565b602081526000610d866020830184610da6565b634e487b7160e01b600052601160045260246000fd5b6000600182016110e5576110e56110bd565b5060010190565b8082028115828204841417610298576102986110bd56fea2646970667358221220822253aaa2362c0b04514f22d77603df4932cc56c82b0e14d979dc1732dffe3364736f6c63430008140033",
  "linkReferences": {},
  "deployedLinkReferences": {}
}